:100000000C943E010C946F010C946F010C946F01E1
:100010000C946F010C946F010C946F010C946F01A0
:100020000C946F010C946F010C946F010C946F0190
:100030000C946F010C946F010C946F010C946F0180
:100040000C946F010C946F010C946F010C946F0170
:100050000C946F010C946F010C946F010C94AE051D
:100060000C946F010C9422060C94F8050C946F010B
:100070000C946F010C946F010C946F010C946F0140
:100080000C946F010C946F010C946F010C946F0130
:100090000C946F010C946F010C946F010C946F0120
:1000A0000C946F010C946F010C946F010C946F0110
:1000B0000C946F010C946F010C946F010C946F0100
:1000C0000C946F010C946F010C946F010C946F01F0
:1000D0000C946F010C946F010C946F010C946F01E0
:1000E0000C946F010C9408040C9499010C94B603C1
:1000F0000C9469030C9476090C94AA010C949D014C
:100100000C9423030C9400030C94CA010C948F01EB
:100110000C940F030C94CF010C94B8010C94BC0107
:100120000C9407040C94D4010C94B4010C94C201F7
:100130000C94D0010C94A1010C9450050C94AE01C8
:100140000C94D3020C94C6010C9458060C94A40190
:100150000C9431030C949501000021002400270029
:100160002A002D00300033000101000004010701C6
:100170000A0100002200250028002B002E0031007B
:10018000340002010000050108010B0100002000FD
:100190002300260029002C002F003200000100005F
:1001A00003010601090105050505070508080808FA
:1001B000020202020A0A08080404040401010101FF
:1001C00001010101030303030303030304070707FA
:1001D0000C0C0C0C0C0C0C0C02020202060606069F
:1001E000060606060B0B0B0B0B0B0B0B010210206C
:1001F000200808102040102040800201020108045D
:1002000002010102040810204080804020100804F0
:100210000201800402018040201008040201080449
:10022000020101020408102040800102040810208D
:10023000408000000A0B02090C0D0E0807030401A0
:1002400000000000000000000000000000000000AE
:10025000000000000000000000000000000012117B
:10026000100000000000000000000000000000007E
:1002700000000000000000005806760911241FBE8F
:10028000CFEFD1E2DEBFCDBF00E00CBF24E0A2E89B
:10029000B3E001C01D92AC3DB207E1F713E0A0E06E
:1002A000B2E0EEECF7E100E00BBF02C007900D9268
:1002B000A238B107D9F711E0CDE3D1E000E006C0E4
:1002C00021970109802FFE010E94B709CC33D10785
:1002D00080E00807A9F70E9438070C94D50B0C940E
:1002E00000008150823108F05AC0E82FF0E08827E2
:1002F000E358FE4F8F4F0C94B7099D01A1018F0168
:1003000095019901CF01A401AA01AE01B401B80180
:10031000BC01C201C601CF01CA01D001D401809144
:1003200080008F77809380000895809180008F7D7A
:10033000F9CF80918000877FF5CF84B58F7784BD1A
:10034000089584B58F7DFBCF8091B0008F77809327
:10035000B00008958091B0008F7DF9CF809190001A
:100360008F77809390000895809190008F7DF9CFD2
:1003700080919000877FF5CF8091A0008F77809348
:10038000A00008958091A0008F7DF9CF8091A000FA
:10039000877FF5CF809120018F778093200108958A
:1003A000809120018F7DF9CF80912001877FF5CF4B
:1003B000CF93DF93282F30E0F901EE5CFD4F84915D
:1003C000F901E451FE4FD491F901EA55FE4FC49171
:1003D000CC23A1F081110E947101EC2FF0E0EE0F0F
:1003E000FF1FE457FE4FA591B491EC91ED2381E0FE
:1003F00090E009F480E0DF91CF91089580E090E0F3
:10040000FACF809106020E94D801019781F0809175
:1004100007020E94D8018130910571F08091080295
:100420000E94D801019731F08FEF9FEF089590E07F
:1004300080E0089582E090E008951F93CF93DF93CA
:10044000282F30E0F901EE5CFD4F8491F901E45171
:10045000FE4FD491F901EA55FE4FC491CC23A9F087
:10046000162F81110E947101EC2FF0E0EE0FFF1F9B
:10047000EE58FE4FA591B4918FB7F894EC911111FD
:1004800008C0D095DE23DC938FBFDF91CF911F9101
:100490000895DE2BF8CFCF93DF9390E0FC01E45179
:1004A000FE4F24918A559E4FFC0184918823D1F000
:1004B00090E0880F991FFC01E85AFE4FA591B49176
:1004C000FC01EE58FE4FC591D49161110EC09FB74B
:1004D000F8948C91E22FE0958E238C932881E2236F
:1004E000E8839FBFDF91CF9108958FB7F894EC9187
:1004F000E22BEC938FBFF6CF3FB7F894809189033E
:1005000090918A03A0918B03B0918C0326B5A89B90
:1005100005C02F3F19F00196A11DB11D3FBFBA2F95
:10052000A92F982F8827BC01CD01620F711D811D55
:10053000911D42E0660F771F881F991F4A95D1F7DA
:1005400008958F929F92AF92BF92CF92DF92EF92D7
:10055000FF924B015C010E947C026B017C010E94B6
:100560007C026C197D098E099F09683E73408105E4
:100570009105A8F321E0821A9108A108B10888EE3C
:10058000C80E83E0D81EE11CF11C81149104A10463
:10059000B10429F7FF90EF90DF90CF90BF90AF901C
:1005A0009F908F900895AF92BF92CF92DF92EF927B
:1005B000FF920F931F93CF93DF936C017B018B010D
:1005C000040F151FEB015E01AE18BF08C017D1075D
:1005D00059F06991D601ED91FC910190F081E02DE7
:1005E000C6011995892B79F7C501DF91CF911F912C
:1005F0000F91FF90EF90DF90CF90BF90AF90089554
:10060000FC01538D448D252F30E0842F90E0821B18
:10061000930B541710F0CF96089501970895FC019D
:10062000918D828D981761F0A28DAE0FBF2FB11DF5
:100630005D968C91928D9F5F9F73928F90E008954D
:100640008FEF9FEF0895FC01918D828D981731F007
:10065000828DE80FF11D858D90E008958FEF9FEF5B
:100660000895FC01918D228D892F90E0805C9F4F31
:10067000821B91098F73992708958DE893E00E945A
:10068000310321E0892B09F420E0822F0895FC0139
:10069000A48DA80FB92FB11DA35ABF4F2C91848DE3
:1006A00090E001968F739927848FA689B7892C9340
:1006B000A089B1898C91837080648C93938D848D93
:1006C000981306C00288F389E02D80818F7D808396
:1006D0000895EF92FF920F931F93CF93DF93EC0156
:1006E00081E0888F9B8D8C8D98131AC0E889F989D9
:1006F000808185FF15C09FB7F894EE89FF896083DC
:10070000E889F98980818370806480839FBF81E05C
:1007100090E0DF91CF911F910F91FF90EF9008959E
:10072000F62E0B8D10E00F5F1F4F0F731127E02E79
:100730008C8D8E110CC00FB607FCFACFE889F989B1
:10074000808185FFF5CFCE010E944703F1CFEB8D6D
:10075000EC0FFD2FF11DE35AFF4FF0829FB7F89485
:100760000B8FEA89FB8980818062CFCFCF93DF93A3
:10077000EC01888D8823B9F0AA89BB89E889F989B9
:100780008C9185FD03C0808186FD0DC00FB607FCEE
:10079000F7CF8C9185FFF2CF808185FFEDCFCE0121
:1007A0000E944703E9CFDF91CF91089580E090E068
:1007B000892B29F00E943D0381110E94000080E0F6
:1007C00090E0892B49F080E090E0892B29F00E948D
:1007D000000081110E94000080E090E0892B49F028
:1007E00080E090E0892B29F00E94000081110E9496
:1007F000000080E090E0892B49F080E090E0892BB8
:1008000029F00E94000081110C94000008950895C1
:1008100090E080E00895CF93DF93EC0160E08E815B
:100820000E941D0261E08E810E941D0260E08E81A7
:100830000E941D028BE891E00197F1F7DF91CF91C3
:100840000895CF92DF92EF92FF920F931F93CF9371
:10085000DF936C017C0187E0E80EF11CD0E0C0E082
:10086000062F10E0B8010C2E02C0759567950A940A
:10087000E2F76170F70181917F010E941D022196CC
:10088000C430D10579F7C601DF91CF911F910F9147
:10089000FF90EF90DF90CF900C940B04CF92DF92FB
:1008A000EF92FF920F931F93CF93DF93EC01F62EFD
:1008B000642F8C810E941D028D818F3F19F060E0B2
:1008C0000E941D020F2D10E08F8584FF25C06E0150
:1008D00087E0C80ED11CF12CE12CB8010E2C02C00F
:1008E000759567950A94E2F76170F60181916F0141
:1008F0000E941D02FFEFEF1AFF0A88E0E816F104DC
:1009000061F7CE01DF91CF911F910F91FF90EF9092
:10091000DF90CF900C940B04B80184E07595679537
:100920008A95E1F7CE010E9421046F2DCE01DF915F
:10093000CF911F910F91FF90EF90DF90CF900C948B
:10094000210440E0682F80EC94E00C944E0481E098
:100950000E94A1048BE39FE10197F1F70895CF93E3
:10096000DF93823029F49091CF0498609093CF0464
:100970008093D3041092D40480E48093D50480E162
:100980008093D60480E58093D70461E08091C4040D
:100990000E944B028091C5048F3F19F061E00E94D4
:1009A0004B0261E08091C6040E944B02C0ECD4E08F
:1009B0009E01205C34408091CF0484FD0BC084E014
:1009C00090E021962817390744F461E08E810E9457
:1009D0004B02EECF88E090E0F4CF8BE39DE00197EF
:1009E000F1F760E08091C4040E941D0260E08091F4
:1009F000C6040E941D028091C5048F3F19F060E07B
:100A00000E941D028091CF0484FD34C063E080EC1D
:100A100094E00E942104CBE4D6E4CE010197F1F7E3
:100A200063E080EC94E00E9421042197F1F763E0F9
:100A300080EC94E00E94210483E592E00197F1F7B5
:100A400062E080EC94E00E9421048091CF048062F7
:100A50000E94A10484E08093D0048CE00E94A10451
:100A60000E94A70482E08093D10486E0DF91CF91B9
:100A70000C94A10480620E94A1048BE496E4019787
:100A8000F1F78091CF0480620E94A10483E592E097
:100A90000197F1F78091CF0480620E94A104D5CF25
:100AA00041E00E944E0481E090E00895FB01019036
:100AB0000020E9F73197AF01461B570BDC01ED91A0
:100AC000FC910280F381E02D1994EF92FF920F9335
:100AD0001F93CF93DF93EC017B01198218821B8255
:100AE0001A821D821C82FB0101900020E9F73197D8
:100AF0008F01061B170BB8016F5F7F4F90E080E0FE
:100B00000E94E40A0097B9F0998388831B830A83C3
:100B10002C813D81232B11F4FC0110821D830C8359
:100B2000B70188819981DF91CF911F910F91FF903B
:100B3000EF900C94CE0B88819981009711F00E9460
:100B40005B0A198218821D821C821B821A82DF9125
:100B5000CF911F910F91FF90EF9008951F920F92E8
:100B60000FB60F9211242F933F938F939F93AF93C0
:100B7000BF938091850390918603A0918703B091E4
:100B800088033091840323E0230F2D3758F5019615
:100B9000A11DB11D20938403809385039093860348
:100BA000A0938703B09388038091890390918A036F
:100BB000A0918B03B0918C030196A11DB11D809370
:100BC000890390938A03A0938B03B0938C03BF9106
:100BD000AF919F918F913F912F910F900FBE0F90EA
:100BE0001F90189526E8230F0296A11DB11DD2CFA4
:100BF0001F920F920FB60F9211240BB60F922F93E4
:100C00003F934F935F936F937F938F939F93AF9394
:100C1000BF93EF93FF938DE893E00E944703FF910A
:100C2000EF91BF91AF919F918F917F916F915F9164
:100C30004F913F912F910F900BBE0F900FBE0F90D1
:100C40001F9018951F920F920FB60F9211240BB69A
:100C50000F922F938F939F93EF93FF93E0919D03B8
:100C6000F0919E038081E091A303F091A40382FDA3
:100C70001DC090818091A6038F5F8F732091A70381
:100C8000821741F0E091A603F0E0E357FC4F958F07
:100C90008093A603FF91EF919F918F912F910F90D9
:100CA0000BBE0F900FBE0F901F9018958081F2CF52
:100CB000EDE8F3E01382128288EE93E0A0E0B0E06A
:100CC00084839583A683B78383E192E091838083B5
:100CD00085EC90E09587848784EC90E09787868701
:100CE00080EC90E0918B808B81EC90E0938B828BF9
:100CF00082EC90E0958B848B86EC90E0978B868BD2
:100D0000118E128E138E148EE0ECF4E01382128298
:100D100085E292E0918380838CE084838FEF8583EA
:100D20008BE0868385E0878384E0808783E081870A
:100D300082E082871386148615861686178681E0E0
:100D40000E94AF046DE272E082EA94E00E946505C1
:100D500064E372E088EA94E00E9465056BE372E068
:100D60008EEA94E00E94650562E472E084EB94E010
:100D70000E94650569E472E08AEB94E00E946505D3
:100D800060E572E08AE294E00E9465056DE572E03C
:100D900080E394E00E9465056AE672E086E394E0F1
:100DA0000E94650567E772E08CE394E00E946505A8
:100DB00064E872E082E494E00E94650561E972E013
:100DC00088E494E00E9465056EE972E08EE494E0A8
:100DD0000E9465056BEA72E084E594E00E94650577
:100DE00068EB72E08AE594E00E94650565EC72E0CC
:100DF00080E694E00E94650562ED72E086E694E08C
:100E00000E9465056FED72E08CE694E00E94650536
:100E10006CEE72E082E794E00E94650569EF72E093
:100E200088E794E00E94650566E073E08EE794E051
:100E30000E94650563E173E084E894E00E94650523
:100E400060E273E08AE894E00E9465056DE273E079
:100E500080E994E00E9465056AE373E086E994E026
:100E60000E94650567E473E08CE994E00C946505E5
:100E7000CF93DF93CDB7DEB7A1970FB6F894DEBF5F
:100E80000FBECDBF789484B5826084BD84B5816087
:100E900084BD85B5826085BD85B5816085BD809145
:100EA0006E00816080936E001092810080918100BD
:100EB00082608093810080918100816080938100B5
:100EC000809180008160809380008091B100846077
:100ED0008093B1008091B00081608093B0008091D8
:100EE0009100826080939100809191008160809355
:100EF0009100809190008160809390008091A1008A
:100F000082608093A1008091A10081608093A10004
:100F10008091A00081608093A00080912101826077
:100F20008093210180912101816080932101809132
:100F3000200181608093200180917A0084608093F9
:100F40007A0080917A00826080937A0080917A00A2
:100F5000816080937A0080917A00806880937A0023
:100F60001092C100E0919D03F0919E0382E0808386
:100F7000E0919903F0919A031082E0919B03F09124
:100F80009C038FEC80831092A503E091A103F09164
:100F9000A20386E08083E0919F03F091A00380810B
:100FA00080618083E0919F03F091A003808188603D
:100FB0008083E0919F03F091A0038081806880830B
:100FC000E0919F03F091A00380818F7D808361E099
:100FD00082E20E944B0261E086E20E944B0260E0E6
:100FE000809106020E944B0260E0809107020E94FD
:100FF0004B0260E0809108020E944B0282E00E9456
:10100000AF04E1E08091D3048111E0E0E195F0E0EC
:10101000E054FB4F8489895F80680E94A10464E5E5
:1010200073E080EC94E00E945605E091D304E23036
:1010300008F0EEC0E150F0E0E054FB4F84898C5F93
:1010400080680E94A10467E673E080EC94E00E944F
:10105000560568EE73E080E090E00E94A1020CE18A
:1010600010E088E10E94A10464EF71E080E090E06C
:101070000E94A10201501109A1F70E94A7048FB795
:10108000F894409185035091860360918703709195
:1010900088038FBF86E0F82E98E1E92E23E0C22E68
:1010A000D12C3AE0432E512C612C712C44E0242E9B
:1010B000312C8FB7F894409185035091860360914D
:1010C0008703709188038FBF0E94010290930502ED
:1010D000809304020091020210910302801791078D
:1010E00009F48DC062E370E080E090E00E94A1020C
:1010F0000E940102909305028093040208171907C9
:1011000009F47DC08FB7F894409185035091860310
:1011100060918703709188038FBF80910402909142
:10112000050290930302809302028230910509F038
:1011300071C080910002909101020196909301028A
:101140008093000210928303109282030597BCF0F3
:1011500030920102209200028091040290910502D7
:10116000019769F480918203909183030196843002
:1011700091050CF0B4C090938303809382030E9486
:10118000A7048091000290910102F89EF001F99E5F
:10119000F00D1124EE55FB4F448155816081718122
:1011A00080EC94E00E94D302E091D304E23008F096
:1011B0009BC0E150F0E0E054FB4F848980680E94BE
:1011C000A1048091820390918303F89EF001F99E1F
:1011D000F00D11242091000230910102E29EC00125
:1011E000E39E900D1124E80FF91FE65DFB4F44814B
:1011F00055816081718180EC94E00E94D30262E3AA
:1012000070E080E090E00E94A1020E94D60351CFDE
:10121000E1E011CF892B09F09FCF809100029091DE
:101220000102019797FD40C0909301028093000254
:10123000109283031092820380900002909001022A
:10124000092C000CAA08BB08B7FE33C06DE28DE87C
:1012500093E00E94690322273327A901281939093D
:101260004A095B0919A28E010F5D1F4FCA01B9011E
:10127000A30192010E949509605DF80162938F01BC
:10128000211531054105510589F70115110529F091
:10129000B8018DE893E00E9456056FE773E08DE892
:1012A00093E00E94560558CF10920102109200025E
:1012B000BFCFA501940119A28E010F5D1F4FCA0176
:1012C000B901A30192010E949509605DF801629342
:1012D0008F01211531054105510589F7D6CFD092EF
:1012E0008303C09282034BCFE1E064CFCF93DF93BF
:1012F000C2EAD4E0269788819981009711F00E9474
:101300005B0A84E0CA32D807A9F7C0ECD4E026977C
:1013100088819981009711F00E945B0A84E0C23AAB
:10132000D807A9F7DF91CF910895A1E21A2EAA1B41
:10133000BB1BFD010DC0AA1FBB1FEE1FFF1FA21785
:10134000B307E407F50720F0A21BB30BE40BF50B82
:10135000661F771F881F991F1A9469F7609570950B
:10136000809590959B01AC01BD01CF010895EE0FD2
:10137000FF1F881F8BBF0790F691E02D19940F93E4
:101380001F93CF93DF938230910510F482E090E0B9
:10139000E091DA04F091DB0430E020E0B0E0A0E07E
:1013A000309799F42115310509F44AC0281B390BEF
:1013B00024303105D8F58A819B816115710589F149
:1013C000FB0193838283FE0111C040815181028120
:1013D000138148175907E0F04817590799F41097F7
:1013E00061F012960C93129713961C933296CF01CC
:1013F000DF91CF911F910F9108950093DA0410931C
:10140000DB04F4CF2115310551F04217530738F0B2
:10141000A901DB019A01BD01DF01F801C1CFEF0194
:10142000F9CF9093DB048093DA04CDCFFE01E20F75
:10143000F31F819391932250310939832883D7CFA9
:101440002091D8043091D904232B41F420910B0230
:1014500030910C023093D9042093D80420910902D2
:1014600030910A022115310541F42DB73EB7409164
:101470000D0250910E02241B350BE091D804F0911F
:10148000D904E217F307A0F42E1B3F0B28173907E6
:1014900078F0AC014E5F5F4F2417350748F04E0FD0
:1014A0005F1F5093D9044093D804819391939FCFA9
:1014B000F0E0E0E09CCFCF93DF930097E9F0FC01F0
:1014C000329713821282A091DA04B091DB04ED010D
:1014D00030E020E01097A1F420813181820F931F2A
:1014E0002091D8043091D9042817390709F061C038
:1014F000F093D904E093D804DF91CF910895EA01E5
:10150000CE17DF07E8F54A815B819E014115510541
:10151000B1F7E901FB83EA8349915991C40FD51FC3
:10152000EC17FD0761F4808191810296840F951F6D
:10153000E90199838883828193819B838A83F0E088
:10154000E0E012968D919C9113970097B9F52D913B
:101550003C911197CD010296820F931F2091D804E0
:101560003091D9042817390739F6309751F5109280
:10157000DB041092DA04B093D904A093D804BCCF52
:10158000D383C28340815181840F951FC817D90727
:1015900061F44E5F5F4F88819981480F591F5183D5
:1015A00040838A819B81938382832115310509F0D1
:1015B000B0CFF093DB04E093DA049ECFFD01DC01B1
:1015C000C0CF13821282D7CF4F925F926F927F92D9
:1015D0008F929F92AF92BF92CF92DF92EF92FF9243
:1015E0000F931F93CF93DF938C01009799F4CB0156
:1015F000DF91CF911F910F91FF90EF90DF90CF90EF
:10160000BF90AF909F908F907F906F905F904F9022
:101610000C94BF09FC01E60FF71F9C012250310911
:10162000E217F30708F4AEC0D901CD91DC91119710
:10163000C617D70720F1C530D10578F0CE01049741
:101640008617970750F0C61BD70B2297C193D193EB
:101650006D937C93CF010E945B0AC801DF91CF910B
:101660001F910F91FF90EF90DF90CF90BF90AF90C0
:101670009F908F907F906F905F904F9008955B0147
:10168000AC1ABD0A4C018C0E9D1EA091DA04B091DB
:10169000DB04512C412CF12CE12C109731F5809179
:1016A000D8049091D9048815990509F05CC04616B4
:1016B000570608F058C08091090290910A020097DD
:1016C00041F48DB79EB740910D0250910E02841BDC
:1016D000950BE817F90708F055C0F093D904E0938B
:1016E000D804F90171836083B8CF8D919C911197D3
:1016F00012966C90129713967C901397A815B905C3
:1017000059F56C0142E0C40ED11CCA14DB0420F16F
:10171000AC014A195B09DA011296159780F06282D2
:10172000738251834083D9016D937C93E114F1045A
:1017300071F0D7011396FC93EE9312978ECF2296F9
:101740008C0F9D1FF90191838083F301EFCFF093FC
:10175000DB04E093DA0481CF4816590608F42C0123
:101760007D01D3019ACFCB010E94BF097C01009774
:1017700049F0AE01B8010E94C50BC8010E945B0A86
:1017800087016BCF10E000E068CFFB01DC0102C0F5
:1017900001900D9241505040D8F70895FB01DC01B3
:1017A00001900D920020E1F7089511E0CDE3D1E022
:1017B00000E006C0802FFE010E94B7092196011D9E
:0E17C000CE33D10780E00807A9F7F894FFCFD9
:1017CE00FFFFFFFFFFFF3332310000DC048000001B
:1017DE000000006903D3020003B60331030F032395
:1017EE0003000000005005D3020804070449746585
:1017FE006D2031004974656D2032004974656D208D
:10180E0033004974656D2034004974656D203500D0
:10181E00537562206974656D20312E3100537562E7
:10182E00206974656D20312E320053756220697403
:10183E00656D20312E3300537562206974656D20FD
:10184E00312E3400537562206974656D20322E314D
:10185E0000537562206974656D20322E3200537507
:10186E0062206974656D20322E33005375622069D3
:10187E0074656D20322E3400537562206974656D67
:10188E0020332E3100537562206974656D20332E1E
:10189E003200537562206974656D20332E33005308
:1018AE007562206974656D20332E34005375622085
:1018BE006974656D20342E3100537562206974652C
:1018CE006D20342E3200537562206974656D20349C
:1018DE002E3300537562206974656D20342E3400EA
:1018EE00537562206974656D20352E310053756213
:1018FE00206974656D20352E32005375622069742F
:10190E00656D20352E3300537562206974656D2028
:10191E00352E340053697374656D612064652063E0
:10192E006F6E74726F6C00696E74656C6967656E4C
:10193E007465206465207472616E7369746F000D36
:02194E000A008D
:00000001FF
